{
  "_format": "hh-sol-artifact-1",
  "contractName": "Tewo",
  "sourceName": "contracts/Tewo.sol",
  "abi": [
    {
      "inputs": [
        {
          "internalType": "address",
          "name": "admin",
          "type": "address"
        }
      ],
      "stateMutability": "nonpayable",
      "type": "constructor"
    },
    {
      "inputs": [],
      "name": "InsufficientFunds",
      "type": "error"
    },
    {
      "inputs": [],
      "name": "InvalidAmount",
      "type": "error"
    },
    {
      "inputs": [],
      "name": "RoleAlreadyGranted",
      "type": "error"
    },
    {
      "inputs": [],
      "name": "RoleNotFound",
      "type": "error"
    },
    {
      "inputs": [],
      "name": "UnauthorizedAccess",
      "type": "error"
    },
    {
      "anonymous": false,
      "inputs": [
        {
          "indexed": true,
          "internalType": "uint256",
          "name": "requestId",
          "type": "uint256"
        },
        {
          "indexed": true,
          "internalType": "address",
          "name": "farmer",
          "type": "address"
        },
        {
          "indexed": false,
          "internalType": "uint256",
          "name": "amount",
          "type": "uint256"
        }
      ],
      "name": "PaymentMade",
      "type": "event"
    },
    {
      "anonymous": false,
      "inputs": [
        {
          "indexed": true,
          "internalType": "uint256",
          "name": "requestId",
          "type": "uint256"
        },
        {
          "indexed": true,
          "internalType": "address",
          "name": "farmer",
          "type": "address"
        },
        {
          "indexed": true,
          "internalType": "address",
          "name": "buyer",
          "type": "address"
        }
      ],
      "name": "ProduceDelivered",
      "type": "event"
    },
    {
      "anonymous": false,
      "inputs": [
        {
          "indexed": true,
          "internalType": "address",
          "name": "farmer",
          "type": "address"
        },
        {
          "indexed": true,
          "internalType": "uint256",
          "name": "produceId",
          "type": "uint256"
        },
        {
          "indexed": false,
          "internalType": "string",
          "name": "name",
          "type": "string"
        },
        {
          "indexed": false,
          "internalType": "uint256",
          "name": "price",
          "type": "uint256"
        }
      ],
      "name": "ProduceListed",
      "type": "event"
    },
    {
      "anonymous": false,
      "inputs": [
        {
          "indexed": true,
          "internalType": "address",
          "name": "buyer",
          "type": "address"
        },
        {
          "indexed": true,
          "internalType": "uint256",
          "name": "produceId",
          "type": "uint256"
        },
        {
          "indexed": false,
          "internalType": "uint256",
          "name": "quantity",
          "type": "uint256"
        }
      ],
      "name": "PurchaseRequested",
      "type": "event"
    },
    {
      "stateMutability": "payable",
      "type": "fallback"
    },
    {
      "inputs": [],
      "name": "ADMIN_ROLE",
      "outputs": [
        {
          "internalType": "bytes32",
          "name": "",
          "type": "bytes32"
        }
      ],
      "stateMutability": "view",
      "type": "function"
    },
    {
      "inputs": [],
      "name": "FARMER_ROLE",
      "outputs": [
        {
          "internalType": "bytes32",
          "name": "",
          "type": "bytes32"
        }
      ],
      "stateMutability": "view",
      "type": "function"
    },
    {
      "inputs": [
        {
          "internalType": "uint256",
          "name": "",
          "type": "uint256"
        }
      ],
      "name": "allProduce",
      "outputs": [
        {
          "internalType": "uint256",
          "name": "produceId",
          "type": "uint256"
        },
        {
          "internalType": "address",
          "name": "farmer",
          "type": "address"
        },
        {
          "internalType": "string",
          "name": "name",
          "type": "string"
        },
        {
          "internalType": "string",
          "name": "description",
          "type": "string"
        },
        {
          "internalType": "uint256",
          "name": "price",
          "type": "uint256"
        },
        {
          "internalType": "uint256",
          "name": "quantity",
          "type": "uint256"
        },
        {
          "internalType": "bool",
          "name": "available",
          "type": "bool"
        },
        {
          "internalType": "string",
          "name": "company",
          "type": "string"
        },
        {
          "internalType": "string",
          "name": "location",
          "type": "string"
        }
      ],
      "stateMutability": "view",
      "type": "function"
    },
    {
      "inputs": [
        {
          "internalType": "uint256",
          "name": "_requestId",
          "type": "uint256"
        }
      ],
      "name": "confirmDelivery",
      "outputs": [],
      "stateMutability": "nonpayable",
      "type": "function"
    },
    {
      "inputs": [
        {
          "internalType": "bytes32",
          "name": "role",
          "type": "bytes32"
        },
        {
          "internalType": "address",
          "name": "account",
          "type": "address"
        }
      ],
      "name": "grantRole",
      "outputs": [],
      "stateMutability": "nonpayable",
      "type": "function"
    },
    {
      "inputs": [
        {
          "internalType": "bytes32",
          "name": "role",
          "type": "bytes32"
        },
        {
          "internalType": "address",
          "name": "account",
          "type": "address"
        }
      ],
      "name": "hasRole",
      "outputs": [
        {
          "internalType": "bool",
          "name": "",
          "type": "bool"
        }
      ],
      "stateMutability": "view",
      "type": "function"
    },
    {
      "inputs": [
        {
          "components": [
            {
              "internalType": "string",
              "name": "name",
              "type": "string"
            },
            {
              "internalType": "string",
              "name": "description",
              "type": "string"
            },
            {
              "internalType": "uint256",
              "name": "price",
              "type": "uint256"
            },
            {
              "internalType": "uint256",
              "name": "quantity",
              "type": "uint256"
            },
            {
              "internalType": "string[]",
              "name": "imageUrl",
              "type": "string[]"
            },
            {
              "internalType": "string",
              "name": "company",
              "type": "string"
            },
            {
              "internalType": "string",
              "name": "location",
              "type": "string"
            }
          ],
          "internalType": "struct Tewo.ProduceInput",
          "name": "input",
          "type": "tuple"
        }
      ],
      "name": "listProduce",
      "outputs": [],
      "stateMutability": "nonpayable",
      "type": "function"
    },
    {
      "inputs": [
        {
          "internalType": "uint256",
          "name": "_requestId",
          "type": "uint256"
        }
      ],
      "name": "payFarmer",
      "outputs": [],
      "stateMutability": "nonpayable",
      "type": "function"
    },
    {
      "inputs": [],
      "name": "produceCount",
      "outputs": [
        {
          "internalType": "uint256",
          "name": "",
          "type": "uint256"
        }
      ],
      "stateMutability": "view",
      "type": "function"
    },
    {
      "inputs": [],
      "name": "registerFarmer",
      "outputs": [],
      "stateMutability": "nonpayable",
      "type": "function"
    },
    {
      "inputs": [],
      "name": "requestCount",
      "outputs": [
        {
          "internalType": "uint256",
          "name": "",
          "type": "uint256"
        }
      ],
      "stateMutability": "view",
      "type": "function"
    },
    {
      "inputs": [
        {
          "internalType": "uint256",
          "name": "_produceId",
          "type": "uint256"
        },
        {
          "internalType": "uint256",
          "name": "_quantity",
          "type": "uint256"
        }
      ],
      "name": "requestPurchase",
      "outputs": [],
      "stateMutability": "payable",
      "type": "function"
    },
    {
      "inputs": [
        {
          "internalType": "bytes32",
          "name": "role",
          "type": "bytes32"
        },
        {
          "internalType": "address",
          "name": "account",
          "type": "address"
        }
      ],
      "name": "revokeRole",
      "outputs": [],
      "stateMutability": "nonpayable",
      "type": "function"
    },
    {
      "inputs": [],
      "name": "withdraw",
      "outputs": [],
      "stateMutability": "nonpayable",
      "type": "function"
    },
    {
      "stateMutability": "payable",
      "type": "receive"
    }
  ],
  "bytecode": "0x60806040523480156200001157600080fd5b50604051620026a2380380620026a28339818101604052810190620000379190620001dd565b620000697fa49807205ce4d355092ef5a8a18f56e8913cf4a201fbe287825b095693c21775826200007060201b60201c565b506200020f565b6004600083815260200190815260200160002060008273ffffffffffffffffffffffffffffffffffffffff1673ffffffffffffffffffffffffffffffffffffffff16815260200190815260200160002060009054906101000a900460ff161562000106576040517fa810f30400000000000000000000000000000000000000000000000000000000815260040160405180910390fd5b60016004600084815260200190815260200160002060008373ffffffffffffffffffffffffffffffffffffffff1673ffffffffffffffffffffffffffffffffffffffff16815260200190815260200160002060006101000a81548160ff0219169083151502179055505050565b600080fd5b600073ffffffffffffffffffffffffffffffffffffffff82169050919050565b6000620001a58262000178565b9050919050565b620001b78162000198565b8114620001c357600080fd5b50565b600081519050620001d781620001ac565b92915050565b600060208284031215620001f657620001f562000173565b5b60006200020684828501620001c6565b91505092915050565b612483806200021f6000396000f3fe6080604052600436106100e15760003560e01c806391d148541161007f578063d547741f11610059578063d547741f14610289578063dabb35cb146102b2578063f3943970146102db578063fd84cb9714610306576100e8565b806391d14854146101f0578063b00cc9e41461022d578063cbfae8d414610244576100e8565b806364fc0ff6116100bb57806364fc0ff6146101555780637357c28d1461017157806375b238fc1461019a578063769428d4146101c5576100e8565b80632f2ff15d146100ea5780633ccfd60b146101135780635badbe4c1461012a576100e8565b366100e857005b005b3480156100f657600080fd5b50610111600480360381019061010c91906116ca565b61032f565b005b34801561011f57600080fd5b506101286103a8565b005b34801561013657600080fd5b5061013f610462565b60405161014c9190611723565b60405180910390f35b61016f600480360381019061016a919061176a565b610468565b005b34801561017d57600080fd5b50610198600480360381019061019391906117aa565b61050e565b005b3480156101a657600080fd5b506101af610709565b6040516101bc91906117e6565b60405180910390f35b3480156101d157600080fd5b506101da61072d565b6040516101e79190611723565b60405180910390f35b3480156101fc57600080fd5b50610217600480360381019061021291906116ca565b610733565b604051610224919061181c565b60405180910390f35b34801561023957600080fd5b5061024261079b565b005b34801561025057600080fd5b5061026b600480360381019061026691906117aa565b610831565b604051610280999897969594939291906118d6565b60405180910390f35b34801561029557600080fd5b506102b060048036038101906102ab91906116ca565b610acc565b005b3480156102be57600080fd5b506102d960048036038101906102d491906119a3565b610b45565b005b3480156102e757600080fd5b506102f0610c8c565b6040516102fd91906117e6565b60405180910390f35b34801561031257600080fd5b5061032d600480360381019061032891906117aa565b610cb0565b005b7fa49807205ce4d355092ef5a8a18f56e8913cf4a201fbe287825b095693c2177561035a8133610733565b610399576040517f08c379a000000000000000000000000000000000000000000000000000000000815260040161039090611a38565b60405180910390fd5b6103a38383610e24565b505050565b7fa49807205ce4d355092ef5a8a18f56e8913cf4a201fbe287825b095693c217756103d38133610733565b610412576040517f08c379a000000000000000000000000000000000000000000000000000000000815260040161040990611a38565b60405180910390fd5b60004790503373ffffffffffffffffffffffffffffffffffffffff166108fc829081150290604051600060405180830381858888f1935050505015801561045d573d6000803e3d6000fd5b505050565b60015481565b600060026000848152602001908152602001600020905061048a818334610f26565b6001600081548092919061049d90611a87565b91905055506104b0600154843385611014565b6104ba818361111e565b823373ffffffffffffffffffffffffffffffffffffffff167f4620557a0fff5213359a815271f5e3d4921c811abaf129161f4d612eacc732a2846040516105019190611723565b60405180910390a3505050565b60006003600083815260200190815260200160002090508060040160009054906101000a900460ff16610576576040517f08c379a000000000000000000000000000000000000000000000000000000000815260040161056d90611b1b565b60405180910390fd5b8060040160019054906101000a900460ff16156105c8576040517f08c379a00000000000000000000000000000000000000000000000000000000081526004016105bf90611b87565b60405180910390fd5b60018160040160016101000a81548160ff0219169083151502179055506000600260008360010154815260200190815260200160002090508060010160009054906101000a900473ffffffffffffffffffffffffffffffffffffffff1673ffffffffffffffffffffffffffffffffffffffff166108fc826004015484600301546106529190611ba7565b9081150290604051600060405180830381858888f1935050505015801561067d573d6000803e3d6000fd5b508060010160009054906101000a900473ffffffffffffffffffffffffffffffffffffffff1673ffffffffffffffffffffffffffffffffffffffff16837f61ac8e9b735e72d1382cbf7d35f2ff3764dae09d7faf7d90787bf7f9ae76e4c8836004015485600301546106ef9190611ba7565b6040516106fc9190611723565b60405180910390a3505050565b7fa49807205ce4d355092ef5a8a18f56e8913cf4a201fbe287825b095693c2177581565b60005481565b60006004600084815260200190815260200160002060008373ffffffffffffffffffffffffffffffffffffffff1673ffffffffffffffffffffffffffffffffffffffff16815260200190815260200160002060009054906101000a900460ff16905092915050565b6107c57f7c6181838a71a779e445600d4c6ecbe16bacf2b3c5bda69c29fada66d1b645d133610733565b15610805576040517f08c379a00000000000000000000000000000000000000000000000000000000081526004016107fc90611c35565b60405180910390fd5b61082f7f7c6181838a71a779e445600d4c6ecbe16bacf2b3c5bda69c29fada66d1b645d133610e24565b565b60026020528060005260406000206000915090508060000154908060010160009054906101000a900473ffffffffffffffffffffffffffffffffffffffff169080600201805461088090611c84565b80601f01602080910402602001604051908101604052809291908181526020018280546108ac90611c84565b80156108f95780601f106108ce576101008083540402835291602001916108f9565b820191906000526020600020905b8154815290600101906020018083116108dc57829003601f168201915b50505050509080600301805461090e90611c84565b80601f016020809104026020016040519081016040528092919081815260200182805461093a90611c84565b80156109875780601f1061095c57610100808354040283529160200191610987565b820191906000526020600020905b81548152906001019060200180831161096a57829003601f168201915b5050505050908060040154908060050154908060070160009054906101000a900460ff16908060080180546109bb90611c84565b80601f01602080910402602001604051908101604052809291908181526020018280546109e790611c84565b8015610a345780601f10610a0957610100808354040283529160200191610a34565b820191906000526020600020905b815481529060010190602001808311610a1757829003601f168201915b505050505090806009018054610a4990611c84565b80601f0160208091040260200160405190810160405280929190818152602001828054610a7590611c84565b8015610ac25780601f10610a9757610100808354040283529160200191610ac2565b820191906000526020600020905b815481529060010190602001808311610aa557829003601f168201915b5050505050905089565b7fa49807205ce4d355092ef5a8a18f56e8913cf4a201fbe287825b095693c21775610af78133610733565b610b36576040517f08c379a0000000000000000000000000000000000000000000000000000000008152600401610b2d90611a38565b60405180910390fd5b610b408383611167565b505050565b7f7c6181838a71a779e445600d4c6ecbe16bacf2b3c5bda69c29fada66d1b645d1610b708133610733565b610baf576040517f08c379a0000000000000000000000000000000000000000000000000000000008152600401610ba690611a38565b60405180910390fd5b600082604001351480610bc6575060008260600135145b15610bfd576040517f2c5211c600000000000000000000000000000000000000000000000000000000815260040160405180910390fd5b600080815480929190610c0f90611a87565b9190505550610c216000543384611268565b6000543373ffffffffffffffffffffffffffffffffffffffff167f9ddbdc549f14472e51605082a70a08ab49d7a14658af517ca3e792f3abc4ffe4848060000190610c6c9190611cc4565b8660400135604051610c8093929190611d63565b60405180910390a35050565b7f7c6181838a71a779e445600d4c6ecbe16bacf2b3c5bda69c29fada66d1b645d181565b7f7c6181838a71a779e445600d4c6ecbe16bacf2b3c5bda69c29fada66d1b645d1610cdb8133610733565b610d1a576040517f08c379a0000000000000000000000000000000000000000000000000000000008152600401610d1190611a38565b60405180910390fd5b60006003600084815260200190815260200160002090508060040160009054906101000a900460ff1615610d83576040517f08c379a0000000000000000000000000000000000000000000000000000000008152600401610d7a90611de1565b60405180910390fd5b60018160040160006101000a81548160ff0219169083151502179055508060020160009054906101000a900473ffffffffffffffffffffffffffffffffffffffff1673ffffffffffffffffffffffffffffffffffffffff163373ffffffffffffffffffffffffffffffffffffffff16847f52bf381f212609da51f36d9de63905d34ce261a04690792404098a6d106d425360405160405180910390a4505050565b6004600083815260200190815260200160002060008273ffffffffffffffffffffffffffffffffffffffff1673ffffffffffffffffffffffffffffffffffffffff16815260200190815260200160002060009054906101000a900460ff1615610eb9576040517fa810f30400000000000000000000000000000000000000000000000000000000815260040160405180910390fd5b60016004600084815260200190815260200160002060008373ffffffffffffffffffffffffffffffffffffffff1673ffffffffffffffffffffffffffffffffffffffff16815260200190815260200160002060006101000a81548160ff0219169083151502179055505050565b8260070160009054906101000a900460ff16610f77576040517f08c379a0000000000000000000000000000000000000000000000000000000008152600401610f6e90611e4d565b60405180910390fd5b8183600501541015610fbe576040517f08c379a0000000000000000000000000000000000000000000000000000000008152600401610fb590611eb9565b60405180910390fd5b818360040154610fce9190611ba7565b811461100f576040517f08c379a000000000000000000000000000000000000000000000000000000000815260040161100690611f25565b60405180910390fd5b505050565b6040518060c001604052808581526020018481526020018373ffffffffffffffffffffffffffffffffffffffff1681526020018281526020016000151581526020016000151581525060036000868152602001908152602001600020600082015181600001556020820151816001015560408201518160020160006101000a81548173ffffffffffffffffffffffffffffffffffffffff021916908373ffffffffffffffffffffffffffffffffffffffff1602179055506060820151816003015560808201518160040160006101000a81548160ff02191690831515021790555060a08201518160040160016101000a81548160ff02191690831515021790555090505050505050565b808260050160008282546111329190611f45565b9250508190555060008260050154036111635760008260070160006101000a81548160ff0219169083151502179055505b5050565b6004600083815260200190815260200160002060008273ffffffffffffffffffffffffffffffffffffffff1673ffffffffffffffffffffffffffffffffffffffff16815260200190815260200160002060009054906101000a900460ff166111fb576040517fcdd418c000000000000000000000000000000000000000000000000000000000815260040160405180910390fd5b60006004600084815260200190815260200160002060008373ffffffffffffffffffffffffffffffffffffffff1673ffffffffffffffffffffffffffffffffffffffff16815260200190815260200160002060006101000a81548160ff0219169083151502179055505050565b6040518061014001604052808481526020018373ffffffffffffffffffffffffffffffffffffffff1681526020018280600001906112a69190611cc4565b8080601f016020809104026020016040519081016040528093929190818152602001838380828437600081840152601f19601f8201169050808301925050505050505081526020018280602001906112fe9190611cc4565b8080601f016020809104026020016040519081016040528093929190818152602001838380828437600081840152601f19601f820116905080830192505050505050508152602001826040013581526020018260600135815260200182806080019061136a9190611f79565b9061137591906121ba565b8152602001600115158152602001828060a001906113939190611cc4565b8080601f016020809104026020016040519081016040528093929190818152602001838380828437600081840152601f19601f820116905080830192505050505050508152602001828060c001906113eb9190611cc4565b8080601f016020809104026020016040519081016040528093929190818152602001838380828437600081840152601f19601f82011690508083019250505050505050815250600260008581526020019081526020016000206000820151816000015560208201518160010160006101000a81548173ffffffffffffffffffffffffffffffffffffffff021916908373ffffffffffffffffffffffffffffffffffffffff16021790555060408201518160020190816114aa919061237b565b5060608201518160030190816114c0919061237b565b506080820151816004015560a0820151816005015560c08201518160060190805190602001906114f1929190611548565b5060e08201518160070160006101000a81548160ff021916908315150217905550610100820151816008019081611528919061237b565b5061012082015181600901908161153f919061237b565b50905050505050565b828054828255906000526020600020908101928215611590579160200282015b8281111561158f57825182908161157f919061237b565b5091602001919060010190611568565b5b50905061159d91906115a1565b5090565b5b808211156115c157600081816115b891906115c5565b506001016115a2565b5090565b5080546115d190611c84565b6000825580601f106115e35750611602565b601f0160209004906000526020600020908101906116019190611605565b5b50565b5b8082111561161e576000816000905550600101611606565b5090565b6000604051905090565b600080fd5b600080fd5b6000819050919050565b61164981611636565b811461165457600080fd5b50565b60008135905061166681611640565b92915050565b600073ffffffffffffffffffffffffffffffffffffffff82169050919050565b60006116978261166c565b9050919050565b6116a78161168c565b81146116b257600080fd5b50565b6000813590506116c48161169e565b92915050565b600080604083850312156116e1576116e061162c565b5b60006116ef85828601611657565b9250506020611700858286016116b5565b9150509250929050565b6000819050919050565b61171d8161170a565b82525050565b60006020820190506117386000830184611714565b92915050565b6117478161170a565b811461175257600080fd5b50565b6000813590506117648161173e565b92915050565b600080604083850312156117815761178061162c565b5b600061178f85828601611755565b92505060206117a085828601611755565b9150509250929050565b6000602082840312156117c0576117bf61162c565b5b60006117ce84828501611755565b91505092915050565b6117e081611636565b82525050565b60006020820190506117fb60008301846117d7565b92915050565b60008115159050919050565b61181681611801565b82525050565b6000602082019050611831600083018461180d565b92915050565b6118408161168c565b82525050565b600081519050919050565b600082825260208201905092915050565b60005b83811015611880578082015181840152602081019050611865565b60008484015250505050565b6000601f19601f8301169050919050565b60006118a882611846565b6118b28185611851565b93506118c2818560208601611862565b6118cb8161188c565b840191505092915050565b6000610120820190506118ec600083018c611714565b6118f9602083018b611837565b818103604083015261190b818a61189d565b9050818103606083015261191f818961189d565b905061192e6080830188611714565b61193b60a0830187611714565b61194860c083018661180d565b81810360e083015261195a818561189d565b905081810361010083015261196f818461189d565b90509a9950505050505050505050565b600080fd5b600060e0828403121561199a5761199961197f565b5b81905092915050565b6000602082840312156119b9576119b861162c565b5b600082013567ffffffffffffffff8111156119d7576119d6611631565b5b6119e384828501611984565b91505092915050565b7f4e6f7420617574686f72697a6564000000000000000000000000000000000000600082015250565b6000611a22600e83611851565b9150611a2d826119ec565b602082019050919050565b60006020820190508181036000830152611a5181611a15565b9050919050565b7f4e487b7100000000000000000000000000000000000000000000000000000000600052601160045260246000fd5b6000611a928261170a565b91507fffffffffffffffffffffffffffffffffffffffffffffffffffffffffffffffff8203611ac457611ac3611a58565b5b600182019050919050565b7f44656c6976657279206e6f7420636f6e6669726d656400000000000000000000600082015250565b6000611b05601683611851565b9150611b1082611acf565b602082019050919050565b60006020820190508181036000830152611b3481611af8565b9050919050565b7f416c726561647920706169640000000000000000000000000000000000000000600082015250565b6000611b71600c83611851565b9150611b7c82611b3b565b602082019050919050565b60006020820190508181036000830152611ba081611b64565b9050919050565b6000611bb28261170a565b9150611bbd8361170a565b9250828202611bcb8161170a565b91508282048414831517611be257611be1611a58565b5b5092915050565b7f416c72656164792061206661726d657200000000000000000000000000000000600082015250565b6000611c1f601083611851565b9150611c2a82611be9565b602082019050919050565b60006020820190508181036000830152611c4e81611c12565b9050919050565b7f4e487b7100000000000000000000000000000000000000000000000000000000600052602260045260246000fd5b60006002820490506001821680611c9c57607f821691505b602082108103611caf57611cae611c55565b5b50919050565b600080fd5b600080fd5b600080fd5b60008083356001602003843603038112611ce157611ce0611cb5565b5b80840192508235915067ffffffffffffffff821115611d0357611d02611cba565b5b602083019250600182023603831315611d1f57611d1e611cbf565b5b509250929050565b82818337600083830152505050565b6000611d428385611851565b9350611d4f838584611d27565b611d588361188c565b840190509392505050565b60006040820190508181036000830152611d7e818587611d36565b9050611d8d6020830184611714565b949350505050565b7f416c72656164792064656c697665726564000000000000000000000000000000600082015250565b6000611dcb601183611851565b9150611dd682611d95565b602082019050919050565b60006020820190508181036000830152611dfa81611dbe565b9050919050565b7f50726f64756365206e6f7420617661696c61626c650000000000000000000000600082015250565b6000611e37601583611851565b9150611e4282611e01565b602082019050919050565b60006020820190508181036000830152611e6681611e2a565b9050919050565b7f4e6f7420656e6f756768207175616e7469747920617661696c61626c65000000600082015250565b6000611ea3601d83611851565b9150611eae82611e6d565b602082019050919050565b60006020820190508181036000830152611ed281611e96565b9050919050565b7f496e636f727265637420457468657220616d6f756e7400000000000000000000600082015250565b6000611f0f601683611851565b9150611f1a82611ed9565b602082019050919050565b60006020820190508181036000830152611f3e81611f02565b9050919050565b6000611f508261170a565b9150611f5b8361170a565b9250828203905081811115611f7357611f72611a58565b5b92915050565b60008083356001602003843603038112611f9657611f95611cb5565b5b80840192508235915067ffffffffffffffff821115611fb857611fb7611cba565b5b602083019250602082023603831315611fd457611fd3611cbf565b5b509250929050565b7f4e487b7100000000000000000000000000000000000000000000000000000000600052604160045260246000fd5b6120148261188c565b810181811067ffffffffffffffff8211171561203357612032611fdc565b5b80604052505050565b6000612046611622565b9050612052828261200b565b919050565b600067ffffffffffffffff82111561207257612071611fdc565b5b602082029050602081019050919050565b600080fd5b600080fd5b600080fd5b600067ffffffffffffffff8211156120ad576120ac611fdc565b5b6120b68261188c565b9050602081019050919050565b60006120d66120d184612092565b61203c565b9050828152602081018484840111156120f2576120f161208d565b5b6120fd848285611d27565b509392505050565b600082601f83011261211a57612119612088565b5b813561212a8482602086016120c3565b91505092915050565b600061214661214184612057565b61203c565b9050808382526020820190506020840283018581111561216957612168612083565b5b835b818110156121b057803567ffffffffffffffff81111561218e5761218d612088565b5b80860161219b8982612105565b8552602085019450505060208101905061216b565b5050509392505050565b60006121c7368484612133565b905092915050565b60008190508160005260206000209050919050565b60006020601f8301049050919050565b600082821b905092915050565b6000600883026122317fffffffffffffffffffffffffffffffffffffffffffffffffffffffffffffffff826121f4565b61223b86836121f4565b95508019841693508086168417925050509392505050565b6000819050919050565b600061227861227361226e8461170a565b612253565b61170a565b9050919050565b6000819050919050565b6122928361225d565b6122a661229e8261227f565b848454612201565b825550505050565b600090565b6122bb6122ae565b6122c6818484612289565b505050565b5b818110156122ea576122df6000826122b3565b6001810190506122cc565b5050565b601f82111561232f57612300816121cf565b612309846121e4565b81016020851015612318578190505b61232c612324856121e4565b8301826122cb565b50505b505050565b600082821c905092915050565b600061235260001984600802612334565b1980831691505092915050565b600061236b8383612341565b9150826002028217905092915050565b61238482611846565b67ffffffffffffffff81111561239d5761239c611fdc565b5b6123a78254611c84565b6123b28282856122ee565b600060209050601f8311600181146123e557600084156123d3578287015190505b6123dd858261235f565b865550612445565b601f1984166123f3866121cf565b60005b8281101561241b578489015182556001820191506020850194506020810190506123f6565b868310156124385784890151612434601f891682612341565b8355505b6001600288020188555050505b50505050505056fea26469706673582212207e06b8d65bbb879fec96cb3bcc0df46e9bad98bf0efff05752a0b6aca3a925a264736f6c63430008170033",
  "linkReferences": {},
  "deployedLinkReferences": {}
}